{"abi":[{"type":"constructor","inputs":[{"name":"_initialValue","type":"uint256","internalType":"uint256"}],"stateMutability":"nonpayable"},{"type":"function","name":"getNumberPlus17","inputs":[],"outputs":[{"name":"","type":"uint256","internalType":"uint256"}],"stateMutability":"view"},{"type":"function","name":"getNumberPlus17a","inputs":[],"outputs":[{"name":"numPlus17","type":"uint256","internalType":"uint256"}],"stateMutability":"view"},{"type":"function","name":"increment","inputs":[],"outputs":[],"stateMutability":"nonpayable"},{"type":"function","name":"number","inputs":[],"outputs":[{"name":"","type":"uint256","internalType":"uint256"}],"stateMutability":"view"},{"type":"function","name":"setNumber","inputs":[{"name":"_newNumber","type":"uint256","internalType":"uint256"}],"outputs":[],"stateMutability":"nonpayable"}],"bytecode":{"object":"0x6080604052348015600e575f80fd5b5060405161032c38038061032c8339818101604052810190602e9190606b565b805f81905550506091565b5f80fd5b5f819050919050565b604d81603d565b81146056575f80fd5b50565b5f815190506065816046565b92915050565b5f60208284031215607d57607c6039565b5b5f6088848285016059565b91505092915050565b61028e8061009e5f395ff3fe608060405234801561000f575f80fd5b5060043610610055575f3560e01c8063273e24311461005957806339cd20ab146100775780633fb5c1cb146100955780638381f58a146100b1578063d09de08a146100cf575b5f80fd5b6100616100d9565b60405161006e919061013f565b60405180910390f35b61007f6100ed565b60405161008c919061013f565b60405180910390f35b6100af60048036038101906100aa9190610186565b610101565b005b6100b961010a565b6040516100c6919061013f565b60405180910390f35b6100d761010f565b005b5f60115f546100e891906101de565b905090565b5f60115f546100fc91906101de565b905090565b805f8190555050565b5f5481565b5f8081548092919061012090610211565b9190505550565b5f819050919050565b61013981610127565b82525050565b5f6020820190506101525f830184610130565b92915050565b5f80fd5b61016581610127565b811461016f575f80fd5b50565b5f813590506101808161015c565b92915050565b5f6020828403121561019b5761019a610158565b5b5f6101a884828501610172565b91505092915050565b7f4e487b71000000000000000000000000000000000000000000000000000000005f52601160045260245ffd5b5f6101e882610127565b91506101f383610127565b925082820190508082111561020b5761020a6101b1565b5b92915050565b5f61021b82610127565b91507fffffffffffffffffffffffffffffffffffffffffffffffffffffffffffffffff820361024d5761024c6101b1565b5b60018201905091905056fea2646970667358221220116eda4535110a4b4bb23092524234872eab227a2e2080f3eef99ec03b95372464736f6c634300081a0033","linkReferences":{}},"methodIdentifiers":{"getNumberPlus17()":"273e2431","getNumberPlus17a()":"39cd20ab","increment()":"d09de08a","number()":"8381f58a","setNumber(uint256)":"3fb5c1cb"},"id":0}